:020000040800F2
:10000000485E012061030008213D0008B537000863
:10001000013D0008811B0008BD66000800000000CB
:10002000000000000000000000000000654C000817
:10003000D13100080000000015030008FD4D000844
:100040007B0300087B0300087B0300087B03000898
:100050007B0300087B0300087B0300087B03000888
:100060007B0300087B0300087B0300087B03000878
:10007000CD2D00087B0300087B0300087B030008EC
:100080007B0300087B0300087B030008611D000858
:10009000491C00087B0300087B0300087B03000861
:1000A000C94E00087B0300087B0300087B0300089F
:1000B0007B030008ED4F00087B0300087B0300086A
:1000C0007B0300087B0300087B0300087B03000818
:1000D0007B030008B1580008F1580008795900085E
:1000E0007B0300087B0300087B03000871510008B4
:1000F0007B0300087B0300087B0300087B030008E8
:100100007B0300087B030008115100087B030008F3
:1001100029570008695700087B0300087B03000883
:100120007B0300087B030008112E00087B030008F6
:100130007B0300087B0300087B0300081D200008E8
:100140002D1E00087B0300087B0300087B030008CA
:100150007B0300087B0300087B030008B5590008F7
:100160007B0300087B0300087B0300087B03000877
:100170007B0300087B0300087B0300087B03000867
:100180007B0300088934000800F002F800F0B2F8A0
:100190000AA090E8000C82448344AAF10107DA45E2
:1001A00001D100F0A7F8AFF2090EBAE80F0013F082
:1001B000010F18BFFB1A43F001031847A4B5000054
:1001C000C4B500000A444FF0000C10F8013B13F0D6
:1001D000070408BF10F8014B1D1108BF10F8015BA0
:1001E000641E05D010F8016B641E01F8016BF9D193
:1001F00013F0080F1EBF10F8014BAD1C0C1B09D1EA
:100200006D1E58BF01F801CBFAD505E014F8016B5B
:1002100001F8016B6D1EF9D59142D6D370470000ED
:100220000023002400250026103A28BF78C1FBD8FF
:10023000520728BF30C148BF0B6070476E2900F0DD
:10024000B783702900F0718166290AF0408465291E
:100250000AF03D8467290AF03A846129AFF30080EF
:1002600003681B0A28BF41F08001692900F0E28081
:10027000642900F0DF80752900F0DC806F2900F030
:10028000BE86782900F03D81E92900F05986E429ED
:1002900000F05686F52900F05386EF2900F0BB8662
:1002A000F82900F03C810368DB0928BF41F0800198
:1002B000632900F0C885732900F0CD85E32900F09B
:1002C0004D87F32900F05287002070471FB50AF0D0
:1002D000F4FB00F0AFFE04000020002109F062FFF3
:1002E000401C60600020002109F046FFE0601FBD57
:1002F00010B510BD00F0D4FF1146FFF7E7FF07F07F
:100300004DFA00F0FBFF03B4FFF7F2FF03BC06F069
:1003100006FA000072B6EFF3098050B11EF0100F1C
:1003200008BF20ED108A203880E8F00F0A490968DC
:100330000860094809490A680260106890E8F00FEF
:1003400020301EF0100F08BFB0EC108A80F309882F
:100350004EF0040E62B67047340E0020380E0020B6
:100360000948804709480047FEE7FEE7FEE7FEE749
:10037000FEE7FEE7FEE7FEE7FEE7FEE70448054985
:10038000054A064B704700000D4E00088901000821
:1003900048580120485E0120485A0120485A01204F
:1003A000704700001CB50C46064B7B446946009024
:1003B000204600F026FD04460020694600F034FD8A
:1003C00020461CBD7B0A00000FB4044910B503AAE7
:1003D000029800F045FD10BC5DF814FB440D0020B0
:1003E00070B50C460546012A05D02878800600D550
:1003F000EA69002302E0012305E05B1C934202D27C
:10040000E05C0028F9D1A869E618C01AA861286A3A
:1004100018442862284600F039FA04E0D5E90121A1
:1004200014F8010B9047B442F8D3284600F044FA80
:1004300070BD00002DE9F0410646002410687529C2
:10044000314616A510D000F048FA002802DA4042E2
:1004500013A507E031688A0701D512A502E0490714
:1004600004D511A5012401E000F040FA00210A2280
:1004700006F1240709E0B0FBF2FCB0FBF2F302FB4B
:100480001C00303078541846491C0028F3D123460C
:100490002A463046BDE8F04100F031BA00000000C5
:1004A0002D0000002B00000020000000F0B40D46DD
:1004B0000188090502D5214C7C4402E01F4C7C4494
:1004C0000E34002100F1240608E002F00F071209A3
:1004D000E75D42EA03721B097754491C52EA03079D
:1004E000F3D102780023120704D5702D06D009B18C
:1004F000022311342246F0BC00F001BA012310346B
:10050000F8E770B504460D462146106800F0EEF994
:10051000024629462046BDE870400023C6E7D21DAA
:1005200022F00703D3E90023C0E70368126843F011
:10053000200303600823C3610023B7E754B1000020
:100540002DE9F05F894604464FF0000ADFF874B1E8
:10055000FB44C0F820A02046E1688847002874D0FA
:10056000252806D0D4E901219047206A401C20624A
:10057000F1E700265F462046E168884720280546C7
:1005800007DB312D05D2781910F8200C08B106438D
:10059000F1E7B00701D526F00406C4F81CA0002737
:1005A000C4F818A02A2D09D0284606F0B1F838B3AF
:1005B00004EB8708303DC8F8185019E059F8041BBF
:1005C000204604EB87029161E1688847012F0546C8
:1005D00018D1E069002820DA26F020061DE0D8F8BE
:1005E000180000EB800005EB40003038C8F8180018
:1005F0002046E1688847054606F08AF80028EED1D3
:10060000012F0AD02E2D08D12046E16888477F1C93
:100610000546022F46F02006C4DBA069002803DA55
:10062000404246F00106A061F00701D026F0100616
:100630006C2D0BD0682D09D04C2D39D06A2D35D0BA
:10064000742D35D07A2D33D016E038E0E1682F468E
:1006500020468847B842054609D16C2F26D04FF472
:100660008060E168064320468847054604E06C2F19
:100670001AD04FF4807006430DB3A5F1410019283C
:1006800002D8203546F400664A46294620462660B0
:100690004E46FFF7D3FD80B101280BD0F61D26F0A2
:1006A000070000F1080956E74020E4E78020D8E77A
:1006B0000020D6E706F104094DE7284652E7206AF4
:1006C000BDE8F09FE4B00000032A40F2308010F053
:1006D000030C00F0158011F8013BBCF1020F6244DD
:1006E00098BF11F801CB00F8013B38BF11F8013B6E
:1006F000A2F1040298BF00F801CB38BF00F8013B1B
:1007000011F0030300F02580083AC0F0088051F88A
:10071000043B083A51F804CBA0E80810F5E7121D95
:100720005CBF51F8043B40F8043BAFF30080D207B4
:1007300024BF11F8013B11F801CB48BF11F8012B80
:1007400024BF00F8013B00F801CB48BF00F8012BA3
:10075000704710B5203AC0F00B80B1E81850203A2D
:10076000A0E81850B1E81850A0E81850BFF4F5AF51
:100770005FEA027C24BFB1E81850A0E8185044BFDB
:1007800018C918C0BDE810405FEA827C24BF51F848
:10079000043B40F8043B08BF7047D20728BF31F83C
:1007A000023B48BF11F8012B28BF20F8023B48BF8D
:1007B00000F8012B70474FF0000200B51346944635
:1007C0009646203922BFA0E80C50A0E80C50B1F1A9
:1007D0002001BFF4F7AF090728BFA0E80C5048BFBD
:1007E0000CC05DF804EB890028BF40F8042B08BF5B
:1007F000704748BF20F8022B11F0804F18BF00F857
:10080000012B70474FF0013C50F8042B51F8043B8A
:100810009A4221D1A2EB0C03934313EACC1317D1D4
:1008200050F8042B51F8043B9A4215D1A2EB0C036B
:10083000934313EACC130BD150F8042B51F8043B2B
:100840009A4209D1A2EB0C03934313EACC13DBD0F9
:100850004FF00000704700BFD01A01BAB1FA81F121
:1008600001F0180122FA01F0CB40C1F12001DBB206
:10087000C0B2C01A2CFA01F3D11A914311EAC31184
:10088000E6D17047704770477047704770B50446AF
:1008900085690068C10601D5302600E02026C00722
:1008A00007D070BDD4E9012130469047206A401C32
:1008B00020626D1EF6D570BD70B50446856900785E
:1008C000C00707D170BDD4E9012120209047206ADC
:1008D000401C20626D1EF6D570BD09684A0501D521
:1008E00040B27047C905FCD500B2704709684A0597
:1008F00001D5C0B27047C905FCD580B270472DE95B
:10090000F0470D4699469246044600F124080168D6
:10091000880604D5E06921F01001216000E0012083
:10092000A84201DD471B00E00027A1697A1902EB0C
:100930000900081AA0612078C00602D42046FFF7FB
:10094000A5FF002608E0D4E901211AF80600904727
:10095000206A401C761C20624E45F4DB2078C006DD
:100960000AD52046FFF792FF06E0D4E901213020A6
:100970009047206A401C2062381EA7F10107F4DC72
:1009800007E0D4E9012118F805009047206A401CCF
:100990002062281EA5F10105F3DC2046FFF78CFF3D
:1009A0002078000602D50220BDE8F0870120FBE791
:1009B00011680268006A530501D508700AE0D30582
:1009C00001D5088006E0130603D5C217C1E900026D
:1009D00000E008600120704770472DE9FF4F0C468A
:1009E0001E464FF0FF378BB0D2E90001DDF8608082
:1009F0000A908A46C1F30A5505B93D4600210846CA
:100A00004FF00000BAF1000F00F4400005DA00EBEF
:100A100080004FF4400101EA50004FEA9059B9F1CB
:100A2000010F00DDB9460A9850EA4A000ED044F69C
:100A30001050A5F2FF3545432F14B8F1000F1ED01A
:100A40007542291E1EDDC9F100021CE0B8F1010F3C
:100A50004FF0000001D0302103E0F24305E02154C3
:100A6000401CB042FBDB30460022002121540B9990
:100A7000C1F80880C1E900200FB0BDE8F08FBD1BB0
:100A80006D1CDEE74A4600DA694206A800F072FBF8
:100A900006AB93E8070003AB83E8070050460A99CA
:100AA00000F035FC8DE80700A0F500501F380090DD
:100AB0000398002D0ADD42F21F014A460844002334
:100AC00003A90390684600F09EFE09E0A0F50050DF
:100AD0004A461F38002303A90390684600F0A8FE89
:100AE0008DE807000004000C03D04FF0FF304108F0
:100AF00000E01046B8F1000F03D000220092154626
:100B00001EE0751E05D400F099FA303262556D1E54
:100B1000F9D5B3460122084302D000227F1C04E02D
:100B20002078302801D100227F1E002A099784D026
:100B30001DE0112D07DA00F081FA303262556D1C8C
:100B400050EA0102F5D1084302D00098C8B10EE086
:100B50000021681E05E0235C625C63542254401E41
:100B6000491C8142F7DBAB46A81B401E09900020C0
:100B700004F80B000B98099AC0F80880C0E9002B14
:100B80007AE711264FF0000857E72DE9F04F884625
:100B90000446D21D22F0070191B0D1E90001CDE950
:100BA0000A0105F09DFD02460B98C00F01D02D20D3
:100BB00007E02068810701D52B2002E0202101EA0F
:100BC000C000032A099001D0072A05DB03464146ED
:100BD000204600F079FA0BE12078800601D5E06923
:100BE00000E00620B8F1650F814606D0B8F1660F27
:100BF00018D0B8F1670F70D131E00020B9F1110FB2
:100C0000009001DB112301E009F101030AAA01A907
:100C10000CA8FFF7E2FEDDE90C70002609F10105E2
:100C2000834647E001204B4600904FF000470AAA58
:100C300001A90CA8FFF7D1FEDDE90DB00C995D46C6
:100C4000002610B909F101000D18B9EB050003D415
:100C5000C0F1FF3609F10105A5EB09002BE0B9F160
:100C6000010F01DA4FF001090020B9F1110F0090D6
:100C7000484601DD112300E003460AAA01A90CA899
:100C8000FFF7ABFEDDE90C704D4600268346207869
:100C900000070AD4AB4500DA5D4601A8012D04DD4A
:100CA000411911F8011C302907D04F4502DA17F11C
:100CB000040F04DA012082460FE06D1EEEE7002FDC
:100CC00002DCED1B3E4403E0781CA84200DD7D1CE5
:100CD000B81B00F1010A4FF000472078000703D449
:100CE000AA4501DB4FF0FF3A0021B7F1004F0DF1AB
:100CF00043088DF8431024D002202B23002F01DA63
:100D00007F422D230A21021EA0F1010000DC5FB109
:100D100097FBF1FC97FBF1F201FB1C7C17460CF1F1
:100D2000300C08F801CDEEE7A8F10100037021882E
:100D3000090501D5452100E06521A0F1010800F871
:100D4000011C09980FA9A1EB0807FF1D00B10120A4
:100D5000411901EBEA70A1693844081A401EA061EC
:100D60002078C00602D42046FFF790FD099828B1EC
:100D7000D4E901219047206A401C20622078C006F7
:100D800022D52046FFF782FD1EE0002E04DBB3458E
:100D900002DD01A8805D00E03020D4E90121904708
:100DA000206A401C2062761CAAF101005FEA000A5A
:100DB0000AD100F03FF9C0680168405CD4E9012124
:100DC0009047206A401C2062281EA5F10105DCDC4A
:100DD00007E0D4E9012118F8010B9047206A401C74
:100DE0002062381EA7F10107F3DC2046FFF764FDFF
:100DF000032011B041E6000001694A1C0261087835
:100E0000704700B58FB0CDE901310021059105494A
:100E10007944CDE9031011466846FFF791FB0FB006
:100E200000BD0000E5FFFFFF0A6802F8010B0A6041
:100E3000704710B5436913B1AFF3008001E0FFF7CD
:100E4000CFFA012010BD127800F124010A700022AF
:100E50004A700122EDE711684FF0FF32E9E7000028
:100E6000074B70B50D467B44FFF7CBFF0446284681
:100E700000F0F2F910B14FF0FF3070BD204670BDA8
:100E8000336400002DE9FF5F15468A460446DFF80B
:100E9000AC80F8440027D8E900103E46CDE90010A8
:100EA00010E03AF816106A4602A800F0D9F9411C81
:100EB00007D02178890603D5E269391891420DD807
:100EC0000744761C2078800602D5E069B84205DD2B
:100ED000AE42E6DB3AF816000028E2D1A069C01B5A
:100EE000A0612046FFF7D2FCD8E90010CDE9001040
:100EF000002017E03AF818106A4602A800F0B0F98E
:100F0000B0F1FF3F81460BD000250DF1080B05E045
:100F1000D4E901211BF8050090476D1C4D45F7D31E
:100F200008F10100B0428046E4DB206A38442062C8
:100F30002046FFF7C1FCBDE8FF9F0000B6A70000F8
:100F40002DE9F0418046D21D22F007020025D2E9AA
:100F50000002F52915A614D0011E72F1000106DA6F
:100F60000023D0EB030063EB020211A608E0D8F8DF
:100F700000108B0701D50FA602E0490701D50EA688
:100F800001251146002408F1240704E000F056F87A
:100F900030323A55641C50EA0102F7D12B463246F2
:100FA00021464046BDE8F041FFF7A9BC0000000023
:100FB0002D0000002B0000002000000030B40021B4
:100FC00000F1240408E002F00705D208303542EAB7
:100FD0004372DB086554491C52EA0305F3D10468E7
:100FE000002310A2250707D5A40600D421B1C469A7
:100FF00001230DA2641EC46130BCFFF780BC10B594
:10100000044621461068FFF771FC02462046BDE801
:1010100010400023D2E7D21D22F00701D1E90023BE
:10102000CCE70000000000003000000000487047DE
:10103000E8570120004870470858012030B5B0F14A
:101040000A024FEA900E71F100034EEA817EB0EB86
:101050000E0061EB91014FEA101E4EEA017E10EB8B
:101060000E0041EB11114FEA102E4EEA016E10EB0B
:101070000E0041EB11214FEA104E4EEA014E10EBEB
:101080000E0041EB1141401841F100014FEAD00040
:1010900040EA41704FEAD10110EB80054FEA81042C
:1010A00044EA907444EB01046D1944EB0404521BB0
:1010B000A3414FF0000348BF0A3200D530BD401CA9
:1010C00041F1000130BD00002DE9F0411F4604460A
:1010D00003260168072A01F4006004DB08B116A5A5
:1010E00005E016A503E008B115A500E015A521F05F
:1010F00010002060A069C01EA0610FB1401EA06159
:101100002046FFF7C3FB4FB1D4E901213846904791
:10111000206A401C2062C01C206206E0206AFAE7B8
:10112000D4E9012115F8010B9047761EF8D220462C
:10113000FFF7C2FBBDE8F0814E414E006E616E00CC
:10114000494E4600696E660010B5436913B1AFF3AE
:10115000008001E0FFF796FE012010BD128800F12B
:10116000240182840022C2840122EDE711684FF03D
:10117000FF32E9E72DE9F047814616468AB0354847
:1011800078440DC88DE80D0032487844801C03ACCB
:101190000DC884E80D0041F69B300844372190FBD0
:1011A000F1F290FBF1F5A5F1800501FB12041B3C67
:1011B00002D56442012000E00020DFF898A08046BC
:1011C0000027FA44AAF1BE0A0EE0E0070AD0324630
:1011D000684607EB470101230AEB810100F028FB79
:1011E0008DE8070064107F1C002CEED1194F7F445E
:1011F000AE3F19E0E80715D007EB04100DF1180A0F
:1012000090E80E008AE80E00C068F04201D19819FB
:1012100008903246012306A903A800F009FB03AB9E
:1012200083E807006D10641C002DE3D14FF001032B
:1012300032466946B8F1000F03A802D000F0E3FA85
:1012400001E000F0F5FAC9E90001C9F808200AB088
:10125000BDE8F0874CA50000007B00F080007047DF
:1012600070B516460C46054600F040F8036893F842
:101270000101012806D0FF2C0FD8185D68B10120AC
:101280002C7070BDD3F807013246214603F20713D4
:1012900003442846BDE8704018474FF0FF3070BD4A
:1012A0007546FFF7C3FEAE4605006946534620F07B
:1012B0000700854618B020B5FFF760F8BDE820406C
:1012C0004FF000064FF000074FF000084FF0000B02
:1012D00021F00701AC46ACE8C009ACE8C009ACE8B5
:1012E000C009ACE8C0098D467047000010B5FFF793
:1012F000A1FE001D10BD00BFAD8E000010B504465C
:10130000AFF300802046BDE81040FEF7FCBF5FEA67
:10131000400C08BF91F0000F4FEA8C234FEAC12226
:1013200043EA51514FEA1C5018BF00F5F0404FEA14
:10133000300018BF41F000415FEA6C5C00F029808A
:10134000BCF1FF3F08BF40F080407047130C06BF60
:1013500012044FF0100C4FF0000C130E04BF1202D9
:101360000CF1080C130F04BF12010CF1040C930FC5
:1013700004BF92000CF1020CD30F04BF52000CF119
:10138000010C11464FF00002A0F11F00A0EB0C0071
:10139000704711F0004F08BF704731F000413FF433
:1013A000D5AF0B0C06BF09044FF0100C4FF0000C2A
:1013B0000B0E04BF09020CF1080C0B0F04BF09014E
:1013C0000CF1040C8B0F04BF89000CF1020CCB0F45
:1013D00004BF49000CF1010CCCF12003A0EB0C0080
:1013E00022FA03F302FA0CF241EA030100F10100D0
:1013F000704720F07F4C80EA030023F07F47ACEB7E
:10140000070303F57C5300F0004003F1FF032DE9CF
:1014100080494FEA154B09B44FEA144325EA0B4EB5
:1014200024EA03480FF2042606EB132749083E7806
:101430005FEA320203FB0667C7F5000707FB06F603
:101440004FEA54374FEAD64606F1020607FB066C10
:10145000CCF1005C4FEA1C472CEA074C07FB06F472
:101460000CFB06F504EB15464FEA961634BF002038
:101470004FF000404FEAD13706FB07FC4FEA1C4C07
:101480000CFB0BF7D21B03FB0CF761EB07010CFB0A
:101490000EF7B0EB074072EB17420CFB08F734BFB6
:1014A000A2EB0742B2EB074261EB17414FEA0C4453
:1014B0004FEA910706FB07FC4FEA1C4C0CFB0BF7AD
:1014C000B0EBC74072EB573203FB0CF734BFA2EB13
:1014D000C742B2EBC74261EB57310CFB0EF7B0EBE2
:1014E000C70072EB57720CFB08F734BFA2EBC702C0
:1014F000B2EBC70261EB5771039F4FEA816141EA8A
:10150000921104EBCC044FEAD1374FEA826206FB1A
:1015100007FC42EA90124FEA80604FEA1C4C0CFB39
:101520000BF7D21B03FB0CF761EB07010CFB0EF76B
:10153000B0EB074072EB17420CFB08F734BFA2EB8D
:101540000742B2EB074261EB17414FEA8C554FEA75
:10155000910704EB9C2406FB07FC4FEA1C4C0CFB98
:101560000BF7B0EBC74072EB573203FB0CF734BFFD
:10157000A2EBC742B2EBC74261EB57310CFB0EF74F
:10158000B0EBC70072EB57720CFB08F734BFA2EB4D
:10159000C702B2EBC70261EB577115EB4C254FEA5E
:1015A000816141EA92114FEA82624FEAD13742EA01
:1015B000901206FB07FC44F100044FEA80604FEAFA
:1015C0001C4C0CFB0BF7D21B03FB0CF761EB070168
:1015D0000CFB0EF7B0EB074072EB17420CFB08F761
:1015E00034BFA2EB0742B2EB074261EB174115EBA8
:1015F0001C154FEA813141EA92414FEA823242EAB8
:1016000090424FEA80304FEA0C7644F1000448EAF9
:1016100003434EEA0B484FF0000EB2EB080C71EB9F
:10162000030724BF624639464EEB0E0E4FF0000B07
:101630000018524149414BEB0B0BB2EB080C71EB1C
:1016400003077BF1000B24BF624639464EEB0E0EBA
:101650004FF0000B0018524149414BEB0B0BB2EB22
:10166000080C71EB03077BF1000B24BF624639467F
:101670004EEB0E0E51EA020718BF46F0010616EBBC
:101680000E7655F1000254F1000103D5BDE8890141
:10169000BDE80088BDE88901BDE80048B61952419F
:1016A00041EB0101A3F10103704780807F7E7D7CC7
:1016B0007B7A7978777676757473727171706F6EE4
:1016C0006E6D6C6C6B6A6A6968686766666564648F
:1016D000636362616160605F5F5E5E5D5D5C5C5B19
:1016E0005B5A5A5959585857575656555555545488
:1016F000535352525251515050504F4F4F4E4E4DE6
:101700004D4D4C4C4C4B4B4B4A4A4A494949484831
:101710004847474747464646454545444444444371
:1017200043434342424242414141002B9C4630D414
:1017300077002BD01CB54FEA370703B44FF01000E9
:101740004FF01001BAF1000F06D0BCF1000FDCBF62
:1017500040F0080040F008014FF000000FBCBDE869
:1017600010400BF1010BBBF1010F08BF5FEA170737
:1017700022BF12F1010211F101014FF0004143F1CA
:10178000000300F0004043EA00007047F9D3570817
:10179000D0E746EA064613F1400F4FEA16461FDD32
:1017A00013F1200FDFBF16430A46002120335B42AE
:1017B000BED0C3F1200746EA064602FA07F74FEA11
:1017C000164646EA0706C3F1200722FA03F201FA99
:1017D00007F721FA03F14FF0000342EA0702A7E7F7
:1017E00046EA020646EA06464FEA164646EA010679
:1017F000BCBF46EA0646360C4FF000034FF000022D
:101800004FF0000194E72DE9804C9A46934670B45E
:1018100091E8380007C831EA400C48BF34EA430C6D
:1018200003D5FFF7E6FDFFF780FFF0BCBDE8008CB5
:101830002DE9804C9A46934670B491E8380007C869
:1018400010F0804F08BF13F0804F03D100F005F86F
:10185000FFF76BFFF0BCBDE8008C20F07F4780EA0B
:10186000030023F07F4C07EB0C03A3F57C5300F03F
:101870000040A3F1FE0392F0000F00F0B38095F05A
:10188000000F00F077802DE901494FEA11404FEA3F
:10189000144621EA004800FB06FC24EA064708FB40
:1018A00006F607FB08F800FB07F718EB06484CEBB9
:1018B000164C4FEA124B18EB07484FEA15464CEB13
:1018C000174022EA0B4E0BFB06FC25EA06470EFBEF
:1018D00006F607FB0EFE0BFB07F71EEB064E4CEB66
:1018E000164C4FF000061EEB074E4CEB174B18EB57
:1018F0000B0840F1000018EB0E0B58EB000840F10C
:1019000000008F1A4FF000013CBFC943661B14BF93
:10191000B5EB040C00213CBFC943F61B4FEA17444A
:101920004EEA8E0E27EA04454FEA1C4704FB076285
:101930002CEA074C05FB07F70CFB05F604FB0CFC37
:1019400016EB074642EB174216EB0C4642EB1C42E5
:101950001BEB060658EB0202414146EA9E0601D502
:10196000BDE80189B619524141EB0101A3F1010320
:10197000BDE801894FEA14454FEA114724EA0546BC
:1019800021EA074C05FB07F406FB07F70CFB06F101
:1019900005FB0CFC11EB074144EB17444FEA1247DF
:1019A00011EB0C4144EB1C4422EA074C05FB07F207
:1019B00006FB07F70CFB06F605FB0CFC16EB0746CF
:1019C00042EB174216EB0C4642EB1C456A1854F1E9
:1019D000000148BF7047B619524141EB0101A3F124
:1019E0000103704795F0000F37D04FEA11424FEADC
:1019F000144721EA024624EA074C02FB07F106FBE2
:101A000007F70CFB06F402FB0CFC14EB074441EB5C
:101A100017414FEA154714EB0C4441EB1C4125EAF2
:101A2000074C02FB07F506FB07F70CFB06F602FB6B
:101A30000CFC16EB074645EB174516EB0C4645EB41
:101A40001C42121951F1000148BF7047B6195241AA
:101A500041EB0101A3F1010370474FEA14454FEA3E
:101A6000114724EA054621EA074C05FB07F106FB6E
:101A700007F70CFB06F24FF0000605FB0CFC12EB1F
:101A8000074241EB174112EB0C4251EB1C4148BF9E
:101A90007047921841EB0101A3F101037047000068
:101AA0003249097839B9AA2805D101212F4A117084
:101AB0002F49087059E02D490978012907D1AF282D
:101AC00005D10221294A1170294948704DE0274962
:101AD0000978022907D1F12805DA0321234A117078
:101AE0002349887041E02149097803290CD1322823
:101AF0000ADA04211D4A11701D49C8701D49087079
:101B000000211D4A117030E018490978042919D1C3
:101B100018490978002915DD16490978491E154A22
:101B2000117015490978144A1278521C124B1A7018
:101B3000091D0F4A50540F490978B1B905210B4AC4
:101B4000117012E00949097805290BD10021074AD3
:101B5000117009490978091D054A50540121074AA5
:101B6000117002E00021014A117070472C01002021
:101B7000861E00202B0100202801002029010020C2
:101B800002A0FEF721FC00BFFEE70000427573468D
:101B900061756C745F48616E646C65720D0A00005B
:101BA00070B504460D46164600F008F800F02EF811
:101BB00032462946204600F0E7F870BD1CB50121E9
:101BC000084602F03DFF0121480602F059FF0922B4
:101BD0000C210D4801F016FD09220B210A4801F0E5
:101BE00011FD4FF4C050009002208DF80400032036
:101BF0008DF8050000208DF806008DF80700694675
:101C0000014801F0B7FC1CBD0000024008B51420DB
:101C10008DF8000000208DF801008DF802000120F1
:101C20008DF80300684602F089F813208DF8000053
:101C300000208DF801008DF8020001208DF80300CE
:101C4000684602F07BF808BD00B585B00221414826
:101C500000F008FB00287BD002213E4800F00EFA7D
:101C60003D493C4800F0EEF96A460021394800F051
:101C70001CFC40F205210098884216D19DF80E10F8
:101C80009DF80D0041EA002001B23448A0F80C1282
:101C90009DF80C009DF80B3040EA03212F48B0F965
:101CA0000C2200F5007004F07BFE40F20621009843
:101CB000884216D19DF80E109DF80D0041EA0020D3
:101CC00001B22648A0F88C129DF80C009DF80B304C
:101CD00040EA03212148B0F98C2200F5207004F07D
:101CE0005FFE40F207210098884216D19DF80E1041
:101CF0009DF80D0041EA002001B21848A0F80C132D
:101D00009DF80C009DF80B3040EA03211348B0F910
:101D10000C2300F5407004F043FE0098B0F5027FFC
:101D200016D19DF80E109DF80D0041EA002001B279
:101D30000A48A0F88C139DF80C009DF80B3040EA7F
:101D400003210648B0F98C2300F5607004F028FEEA
:101D500005B000BD0064004003000012840E0020A6
:101D600010B50121064800F07DFA40B10121044878
:101D700000F084F903480068401C0249086010BD67
:101D8000006400407827002070B588B004460D46F6
:101D90001646254800F0C6F905A800F0FEFB002015
:101DA0008DF81A008DF81B008DF81C008DF81D00B1
:101DB0008DF81E0001208DF81F008DF816600020A0
:101DC0008DF8170008208DF8180003208DF81900F1
:101DD000ADF8140005A9144800F0DDFA00208DF8D4
:101DE0000E008DF80F0001208DF81000ADF80440B2
:101DF000ADF806500020ADF80800ADF80A00ADF8C7
:101E00000C0001208DF8110001A800F0A7F90122B3
:101E10000221054800F0B6FA01221146024800F0FE
:101E2000B1FA08B070BD000000640040F0B585B0A4
:101E30000221764800F016FA00287DD0022173486E
:101E400000F01CF97249714800F0FCF86A46002164
:101E50006E4800F02AFB40F201210098884248D1E8
:101E60009DF80E109DF80D0041EA002006B2694869
:101E7000B0F90C0000EE100AB8EEC00AB0EE401A3D
:101E800000EE106AF8EEC00A9FED630A01F02AFF27
:101E9000BDEEC00A10EE100A00B25E4988819DF8BE
:101EA00010109DF80F0041EA002004B25948B0F923
:101EB0000E0000EE100AB8EEC00AB0EE401A00EEB6
:101EC000104AF8EEC00A9FED540A01F00BFFBDEE78
:101ED000C00A10EE100A00B24E49C8819DF80C00ED
:101EE0009DF80B3040EA03214A48B0F90C2004F079
:101EF00057FD40F20221009888424DD19DF80E1006
:101F00009DF80D0041EA002007B24248B0F98C006C
:101F100000EE100AB8EEC00AB0EE401A00EE107AD9
:101F2000F8EEC00A9FED3C0A01F0DCFEBDEEC00AEF
:101F300010EE100A01B200E065E03648A0F88C10FF
:101F40009DF810109DF80F0041EA002005B23148BD
:101F5000B0F98E0000EE100AB8EEC00AB0EE401ADA
:101F600000EE105AF8EEC00A9FED2B0A01F0BAFEFF
:101F7000BDEEC00A10EE100A01B22648A0F88E107D
:101F80009DF80C009DF80B3040EA03212148B0F980
:101F90008C20803004F004FD40F203210098884238
:101FA00016D19DF80E109DF80D0041EA002001B2F7
:101FB0001848A0F80C119DF80C009DF80B3040EA71
:101FC00003211448B0F90C2100F5807004F0E8FCFE
:101FD0000098B0F5017F16D19DF80E109DF80D0008
:101FE00041EA002001B20B48A0F88C119DF80C00CA
:101FF0009DF80B3040EA03210648B0F98C2100F52A
:10200000C07004F0CDFC05B0F0BD000000680040D9
:1020100003000012841200203333333F10B5012136
:10202000064800F01FF940B10121044800F026F8ED
:1020300003484068401C0249486010BD00680040E9
:102040007827002000220C4B994202D100238361A3
:1020500011E0C1F3130201F000730BB1C2600AE09A
:1020600001F080630BB1026105E001F000630BB188
:10207000826000E0426070477000F030B1F5007F90
:102080003AD00FDC202928D006DC01291CD00429F5
:102090001DD0082940D11DE0402921D0B1F5807F15
:1020A0003AD126E0B1F5004F31D006DCB1F5806FB2
:1020B00025D0B1F5006F2FD124E0B1F5803F12D0CB
:1020C000B1F5003F28D111E0154A826025E00822D1
:1020D000C26022E01022C2601FE0082202611CE000
:1020E0001022026119E00822426016E010224260CC
:1020F00013E00422426010E0042242600DE004225A
:1021000042600AE0002282610422426005E000226F
:1021100082610422426000E000BF00BF70470000FF
:102120000101010010B504460B48844209D1012188
:10213000480602F0B5FC00214FF0007002F0B0FC40
:1021400008E00121880602F0ABFC00214FF080601E
:1021500002F0A6FC10BD00000064004010B5002194
:10216000837A012202FA03F13D4A126842F0010229
:102170003B4B1A603A4A1C3212688A43384B1C3374
:102180001A60027BCAB9364A0C3212688A43344B51
:102190000C331A604288C38842EA0343304A403213
:1021A000847A42F834300288838842EA03432C4A16
:1021B0004032847A02EBC4025360027B012A19D1B7
:1021C000274A0C3212680A43254B0C331A604288A6
:1021D000038842EA0343224A4032847A42F8343088
:1021E000C288838842EA03431D4A4032847A02EB64
:1021F000C4025360C27A3AB9194A121D12688A435E
:10220000174B1B1D1A6006E0154A121D12680A437F
:10221000134B1B1D1A60028932B9114A143212681D
:102220008A430F4B14331A600289012A06D10C4AE3
:10223000143212680A430A4B14331A60427B012A93
:1022400006D1074A1C3212680A43054B1C331A6038
:10225000034A126822F00102014B1A6010BD00000F
:102260000066004070B504460D46002660692840AF
:10227000002871D0B5F5807F5CD010DC082D35D0FA
:1022800006DC012D20D0022D24D0042D72D127E0B0
:10229000102D31D0202D35D0402D6BD138E0B5F543
:1022A000004F60D009DCB5F5007F49D0B5F5806FEF
:1022B0004CD0B5F5006F5DD14FE0B5F5803F2DD026
:1022C000B5F5003F56D12FE0A0682D4900F074FD10
:1022D000064651E0E068032100F06EFD06464BE043
:1022E000E068082100F068FD064645E0E06810213E
:1022F00000F062FD06463FE02069032100F05CFD2E
:10230000064639E02069082100F056FD064633E014
:102310002069102100F050FD06462DE0606808217C
:1023200000F04AFD064627E06068102100F044FDF9
:10233000064621E0A069012100F03EFD06461BE0B3
:10234000A069022100F038FD064615E0A0690421CD
:1023500000F032FD06460FE00FE0A069702100F0AA
:102360002BFD064608E06068042100F025FD0646C6
:1023700002E0FFE7002600BF00E00026304670BD07
:10238000010101001AB143690B43436102E0436953
:102390008B434361704730B5024600200023146828
:1023A00024F002041460146844F00104146000E096
:1023B0005B1C546804F001041CB94FF6FF74A3427F
:1023C000F6D1546804F001040CB900206CE08C795B
:1023D000012C04D1146844F08004146003E01468F4
:1023E00024F080041460CC79012C04D1146844F0EA
:1023F0004004146003E0146824F0400414600C7A74
:10240000012C04D1146844F02004146003E0146823
:1024100024F0200414604C7A012C04D1146844F098
:102420001004146003E0146824F0100414608C7A23
:10243000012C04D1146844F00804146003E014680B
:1024400024F008041460CC7A012C04D1146844F000
:102450000404146003E0146824F0040414608C780D
:10246000A407CD7844EA05640D7944EA05444D7922
:1024700044EA05540D886D1E2C43D461146824F081
:1024800001041460002300E05B1C546804F00104A4
:102490001CB14FF6FF74A342F6D1546804F0010456
:1024A0000CB1002000E0012030BD10B500F5D8735C
:1024B00003EB01131B6803F004031372137A53B97F
:1024C00000F5D87303EB01131B6840F2FF7404EAB4
:1024D0005353136009E000F5D87303EB01131B6835
:1024E0006FF0604404EAD303536000F5D87303EB44
:1024F00001131B6803F00203537200F5D87303EB5A
:1025000001135B6803F00F03937200F5D87303EBBC
:1025100001135B681B0AD37400F5D87303EB011336
:102520009B68D37200F5D87303EB01139B681C0AF8
:10253000147300F5D87303EB01139B681C0C5473E0
:1025400000F5D87303EB01139B681B0E937300F522
:10255000D87303EB0113DB68D37300F5D87303EB77
:102560000113DB681C0A147400F5D87303EB011324
:10257000DB681C0C547400F5D87303EB0113DB68A3
:102580001B0E937421B9C36843F02003C36003E0BA
:10259000036943F02003036110BD00218171C17103
:1025A000017241728172C1728170C1700321017127
:1025B0000221417101210180704710B502460020BF
:1025C000936803F08063B3F1806F00D110E09368EB
:1025D00003F00063B3F1006F01D1012008E09368BC
:1025E00003F08053B3F1805F01D1022000E00420AA
:1025F000042874D002F5C07303EB00131B6803F0CA
:10260000010402F5C07303EB00131C600B7A7BB965
:102610004B7A0C8843EA445302F5C07404EB00146F
:102620002468234302F5C07404EB0014236010E017
:102630000B7A4C6843EAC4034C7A234302F5C07416
:1026400004EB00142468234302F5C07404EB001467
:1026500023608B7A03F00F038B7202F5C07303EBD8
:1026600000135B6823F00F0402F5C07303EB001343
:102670005C6002F5C07303EB00135B688C7A234344
:1026800002F5C07404EB001463608B7B1C064B7B6B
:1026900044EA03440B7B44EA0323CC7A234302F548
:1026A000C07404EB0014A3608B7C1C064B7C44EAD2
:1026B00003440B7C44EA0323CC7B234302F5C07420
:1026C00004EB0014E36002F5C07303EB00131B6816
:1026D00043F0010402F5C07303EB00131C6010BD4E
:1026E00000B585B02F48B0F87C00000A2E4908706C
:1026F0002C4890F87C0048702A48B0F8FC00000A8A
:102700008870284890F8FC00C8702648B0F87C0112
:10271000000A0871234890F87C0148712148B0F8FC
:10272000FC01000A88711F4890F8FC01C8710A4634
:102730004FF40071684604F001F969461B48FFF741
:102740003CFF1B48B0F87C02000A17490870184883
:1027500090F87C0248701648B0F8FC02000A8870B5
:10276000134890F8FC02C8701148B0F87C03000AC6
:1027700008710F4890F87C0348710D48B0F8FC03CD
:10278000000A88710A4890F8FC03C8710A4640F2B2
:10279000FF11684604F0D2F869460648FFF70DFFBE
:1027A00005B000BD8412002084160020006800409F
:1027B000840E0020006400402DE9FF4F2DED088BB2
:1027C00083B004460D46201D50F82500029004F108
:1027D0009800405D20B904F1700050F8256036E0A3
:1027E00004F19800405D012804D104F1700050F814
:1027F00025702CE004F19800405D022804D104F11A
:10280000700050F8259022E004F19800405D032804
:1028100004D104F1700050F8258018E004F198000C
:10282000405D042804D104F1700050F825B00EE09A
:1028300004F19800405D052804D104F1700050F8BF
:1028400025A004E004F1700050F82500019001F08B
:10285000BBFA0120FA490860FA49087000231946BA
:102860001846029A01F0B2FC95E201F0C1F9F6486F
:1028700001680D98814205D10020F149086001F0FE
:10288000A3FA89E2F148EF49097800EBC10090ED25
:10289000001BB0EE410AF0EE610A9FEDED1B53EC18
:1028A000112B51EC100B07F079FD7DD004F198004D
:1028B000405D38BBE848006808F08EF841EC1B0B1F
:1028C000E248E049097800EBC10090ED001BB0EE52
:1028D000410AF0EE610A53EC102B51EC1B0B07F090
:1028E0005DFE41EC190B306807F008FE41EC1A0B55
:1028F00053EC192B07F09EFC41EC180B07F0BAFDC6
:1029000030606EE104F19800405D012827D1D24883
:10291000006808F061F841EC1B0BCC48C949097804
:1029200000EBC10090ED001BB0EE410AF0EE610A31
:1029300053EC102B51EC1B0B07F030FE41EC190B44
:10294000386807F0C4FD41EC1A0B53EC192B07F063
:1029500071FC41EC180B07F05DFD386041E104F1BA
:102960009800405D02282BD1BB48006808F034F87D
:1029700041EC1B0BB548B349097800EBC10090ED61
:10298000001BB0EE410AF0EE610A53EC102B51EC43
:102990001B0B07F003FE41EC190BB9F8000007F020
:1029A000ADFD41EC1A0B00E0C7E053EC192B07F02A
:1029B00041FC41EC180B07F05DFDA9F8000010E1A7
:1029C00004F19800405D03282AD1A348006808F06C
:1029D00003F841EC1B0B9D489A49097800EBC100B4
:1029E00090ED001BB0EE410AF0EE610A53EC102BA3
:1029F00051EC1B0B07F0D2FD41EC190BB8F90000AC
:102A000007F065FD41EC1A0B53EC192B07F012FC93
:102A100041EC180B07F0FEFC00B2A8F80000E0E063
:102A200004F19800405D042829D18B48006807F024
:102A3000D3FF41EC1B0B85488249097800EBC100AC
:102A400090ED001BB0EE410AF0EE610A53EC102B42
:102A500051EC1B0B07F0A2FD41EC190B9BF8000099
:102A600007F04CFD41EC1A0B53EC192B07F0E2FB7D
:102A700041EC180B07F0FEFC8BF80000B1E004F10C
:102A80009800405D05282AD17348006807F0A4FF2C
:102A900041EC1B0B6D486B49097800EBC10090EDD0
:102AA000001BB0EE410AF0EE610A53EC102B51EC22
:102AB0001B0B07F073FD41EC190B9AF9000007F0AE
:102AC00006FD41EC1A0B53EC192B07F0B3FB41EC5C
:102AD000180B07F09FFC40B28AF8000081E05E48C6
:102AE000006807F079FF41EC1B0B584855490978FD
:102AF00000EBC10090ED001BB0EE410AF0EE610A60
:102B000053EC102B51EC1B0B07F048FD41EC190B5B
:102B1000019890ED000A10EE101A084607F05CFFCD
:102B200041EC1A0B53EC192B07F084FB41EC180B0A
:102B300007F04EFB0199086053E044484149097889
:102B400000EBC10090ED001BB0EE410AF0EE610A0F
:102B50009FED3F1B53EC112B51EC100B07F01EFCAB
:102B60003FD13D4890ED000AB5EEC00AF1EE10FAF3
:102B700037D004F19800405D10B90020306030E09B
:102B800004F19800405D012802D10020386028E05F
:102B900004F19800405D022803D10020A9F800004C
:102BA0001FE004F19800405D032803D10020A8F83D
:102BB000000016E004F19800405D042803D10020D5
:102BC0008BF800000DE004F19800405D052803D16A
:102BD00000208AF8000004E09FED200A019880EDB3
:102BE000000A9FED1E0A1C4880ED000A04F19800BF
:102BF000405D78B9306807F081FC41EC180B042384
:102C00000E22B0EE480AF0EE680A0121002001F021
:102C10001BFA91E004F19800405D012820D138684A
:102C200007F055FC41EC180B04230E22B0EE480AC5
:102C3000F0EE680A0121002001F006FA7CE00000B5
:102C4000A80D0020AC0D0020A40D0020B80D002020
:102C50000000000000000000B00D00200000000097
:102C600004F19800405D022810D1B9F8000007F087
:102C700045FC41EC180B04230E22B0EE480AF0EE9E
:102C8000680A0121002001F0DFF955E004F1980005
:102C9000405D032810D1B8F9000007F018FC41ECA2
:102CA000180B04230E22B0EE480AF0EE680A012148
:102CB000002001F0C9F93FE004F19800405D0428CC
:102CC00010D19BF8000007F019FC41EC180B04230D
:102CD0000E22B0EE480AF0EE680A0121002001F051
:102CE000B3F929E004F19800405D052810D19AF964
:102CF000000007F0ECFB41EC180B04230E22B0EEB1
:102D0000480AF0EE680A0121002001F09DF913E065
:102D1000019890ED000A10EE101A084607F05CFECC
:102D200041EC180B04230E22B0EE480AF0EE680ABC
:102D30000121002001F088F91A481B49097800EBAD
:102D4000C10090ED001BB0EE410AF0EE610A1FEDEC
:102D5000401B53EC112B51EC100B07F01FFB06D15D
:102D6000012312A20221002001F030FA10E00D48E8
:102D70000D49097800EBC10090ED001BB0EE410A4F
:102D8000F0EE610A05230E220221002001F05CF919
:102D9000142006F0ABFC68E500BF03B0BDEC088B67
:102DA000BDE8FF8FB80D0020AC0D0020436C6561BD
:102DB0007220546F202030000246002002EA0103F6
:102DC0000BB1012000E000207047000010B50B4956
:102DD0000B4800F081F980B10849094800F058F823
:102DE000074800F04CF90749087007480078401C74
:102DF0000549087001200549087010BD00880010C1
:102E00002860024039010020380100203A010020EA
:102E100010B500BF0B4801680B4804F0F9FA00BF79
:102E20000A490B4800F058F958B10849084800F021
:102E30002FF808480068804707488068401C06490A
:102E4000886010BD3C0E002078010020008020101A
:102E50004064024068010020782700200246094BA8
:102E60009A4201D2084801E00648103801F00053A8
:102E70001BB1064B0B40C36002E0044B0B40836068
:102E80007047000010640240006002407D0F7D0F1B
:102E90000246094B9A4201D2084801E00648103820
:102EA00001F000531BB1064B0B40C36002E0044B22
:102EB0000B408360704700001064024000600240D5
:102EC0007D0F7D0F21B1026842F00102026003E034
:102ED000026822F00102026070470000016821F0E0
:102EE000010101600021016041608160C1600161F8
:102EF000212141614A49884204D13D21484A103A82
:102F000091608CE046491831884205D14FF47461D4
:102F1000434A103A916082E041493031884205D1FC
:102F20004FF474113E4A103A916078E03C494831C0
:102F3000884205D14FF07461394A103A91606EE0D1
:102F400037496031884204D13649354A103AD16058
:102F500065E033497831884204D13349304A103A28
:102F6000D1605CE02E499031884204D12F492C4A2F
:102F7000103AD16053E02A49A831884205D14FF078
:102F80003D51274A103AD16049E02949884204D18D
:102F90003D21274A083A116041E02549183188420D
:102FA00005D14FF47461224A083A116037E0204994
:102FB0003031884205D14FF474111D4A083A11602E
:102FC0002DE01B494831884205D14FF07461184A01
:102FD000083A116023E016496031884204D1114952
:102FE000134A121F11601AE011497831884204D146
:102FF0000D490F4A121F116011E00D4990318842AE
:1030000004D10A490A4A121F116008E00849A83190
:10301000884204D14FF03D51054A121F116070479C
:10302000106002403D000020400F002000003D20C5
:103030001064024021B1026842F48022026003E081
:10304000026822F480220260704722B1036843F4D0
:103050000023036003E0036823F40023036001619D
:103060007047014600200A6802F001020AB10120FF
:1030700000E0002070470146486880B27047014672
:1030800000200A6802F400220AB1012000E00020BA
:103090007047000030B503460A46002000240B4D5F
:1030A000AB4201D20A4901E00849103902F000554B
:1030B0000DB14C6800E00C68064D2C4004EA020596
:1030C0000DB1012000E0002030BD0000106402407E
:1030D000006002407D0F7D0F70B502460020002485
:1030E0000025124EB24201D2114B01E00F4B103BB2
:1030F000104E0E4036B11E2606EAD124166806EAA6
:10310000040502E0566906F0800501F000560EB194
:103110005C6800E01C68084E344004EA010616B101
:103120000DB1012000E0002070BD000010640240DD
:10313000006002403C0F3C0F7D0F7D0F10B501F089
:1031400080034BB122B1436943F08003436103E044
:10315000436923F08003436180290BD02AB10368BF
:1031600001F01E042343036004E0036801F01E0421
:10317000A343036010BD000010B500220268134B8A
:103180001A40CC680B6823434C6923438C69234362
:10319000CC6923430C6A23434C6A23438C6A234340
:1031A0004C6B23438C6B23431A430260426922F029
:1031B0000702D1E90B3423431A4342610B69436090
:1031C0004B6883608B68C36010BD00003F801CF0BB
:1031D00002A0FDF7F9F800BFFEE700004465627544
:1031E000674D6F6E5F48616E646C65720D0A00001A
:1031F00000B587B00121082001F022FC01218804DC
:1032000001F03EFC07220821244800F0FBF90722C8
:103210000921224800F0F6F94FF440700590022091
:103220008DF8180000208DF81A0003208DF8190081
:1032300000208DF81B0005A9184800F09BF94FF4F9
:10324000E13001900020ADF80800ADF80A00ADF8BB
:103250000C00ADF810000C20ADF80E0001A91048CC
:1032600002F020FE012240F224410D4802F0F4FD5C
:1032700001210B4802F091FC27208DF8000002206C
:103280008DF8010000208DF8020001208DF8030068
:10329000684600F053FD07B000BD0000000C02407E
:1032A000004800400EB50121880401F009FC684681
:1032B00002F02EFA0020ADF808001020ADF8020050
:1032C000632001905320ADF800006946084802F0E1
:1032D000DDF900BF06481030008800F0010000282A
:1032E000F8D04FF6FE700249103108800EBD000084
:1032F0000048014001490860704700000C3C024052
:1033000070B504460A460026092502B909E0012ADB
:1033100001D1160205E0022A01D1160201E04FF4A4
:10332000407600F09FF80546092D28D11548006821
:1033300020F4407013490860084600683043086074
:103340000846006820F0F80008600846006844F06D
:10335000020108430B4908600846006840F48030C9
:10336000086000F07FF805460648006820F002007B
:10337000044908600846006820F0F8000860284604
:1033800070BD0000103C024009201349096801F497
:103390008031B1F5803F01D101201CE00E49096860
:1033A00001F0100109B1062015E00B49096801F48C
:1033B000807109B102200EE00749096801F0E001BF
:1033C00009B1072007E00449096801F0020109B1C9
:1033D000082000E0092070470C3C024003480068C8
:1033E00040F000400149086070470000103C024076
:1033F00030B502460C46092500F034F80546092D83
:1034000019D10E48006820F440700C490860084645
:10341000006840F4007008600846006840F0010051
:103420000860146000F01EF805460448006820F0AB
:10343000010002490860284630BD0000103C0240EF
:103440000548006800F0004028B1044802490C39E2
:103450000860034808607047103C0240230167453C
:10346000AB89EFCD08B509200090FFF78DFF0090E4
:1034700002E0FFF789FF00909DF800000128F8D0D6
:103480009DF8000008BD000002A0FCF79DFF00BFF2
:10349000FEE700004650555F48616E646C65720D32
:1034A0000A00000010B50446FFF7CAFFF320FFF73B
:1034B00021FF02212046FFF723FF092801D000BF8A
:1034C000FEE7FFF78BFF10BD10B50B46002105E0AE
:1034D000046842F82140001D4C1CE1B29942F7DB20
:1034E00010BD2DE9F04705460E461746FFF7A8FF29
:1034F000F320FFF7FFFE284600F0B4F81FFA80F82B
:10350000042101FB065000F0ADF81FFA80F9444693
:103510000AE002212046FFF7F3FE092801D000BF90
:10352000FEE704F1080084B24C45F2DB00240CE015
:1035300057F824102846FFF75BFF092801D12D1DFD
:1035400001E000BFFEE7601C84B2B442F0DBFFF78D
:1035500045FFBDE8F0872DED020B6946C8780006EF
:103560008A7840EA02404A7840EA02200A7810430A
:1035700002B07047F0B50A4600210023002400BFC6
:103580003DE0012505FA01F3156805EA03049C42B4
:1035900034D105684F000326BE40B5430560157958
:1035A0004E00B5400668354305601579012D02D0FF
:1035B0001579022D16D185684F000326BE40B5430C
:1035C000856055794E00B54086683543856045680D
:1035D00001268E40B5434560456896798E40B6B267
:1035E00035434560C5684F000326BE40B543C560FE
:1035F000D5794E00B540C6683543C560491C1029D1
:10360000BFD3F0BDF0B5002300244D07ED0E02FA44
:1036100005F3CE1000F1200555F826504E07F70EA1
:103620000F26BE40B543CF1000F1200646F82750C4
:10363000CE1000F1200555F8265045EA0304CE10BF
:1036400000F1200545F82640F0BD02460020136930
:103650000B400BB1012000E0002070474183704710
:1036600001837047014600202C4A914203D2B1F1F8
:10367000006F00D350E02A4A914204D2274A914277
:1036800001D3082048E0274A914204D2244A9142BB
:1036900001D3102040E0244A914204D2214A9142B1
:1036A00001D3182038E0214A914204D21E4A9142A7
:1036B00001D3202030E01E4A914204D21B4A91429D
:1036C00001D3282028E01B4A914204D2184A914293
:1036D00001D3302020E0184A914204D2154A914289
:1036E00001D3382018E0154A914204D2124A91427F
:1036F00001D3402010E0124A914204D20F4A914275
:1037000001D3482008E00F4A914204D20C4A91426A
:1037100001D3502000E0582070470000004000080E
:103720000080000800C00008000001080000020836
:1037300000000408000006080000080800000A084D
:1037400000000C0800000E0801461648007808B971
:10375000002070471448154B1B7810F813000870B0
:103760001148124B1B7800EB4300407848700F481B
:103770000078401C0D4B187018460078142801DBA7
:10378000002018700A48027808480078904203D157
:103790000020044B187002E00220024B1870012038
:1037A000D7E7000033010020B81E002031010020BF
:1037B0003201002004A0FCF707FE0848016808A0B9
:1037C000FCF702FE00BFFEE7486172644661756C5B
:1037D000745F48616E646C65720D0A002CED00E048
:1037E00025780D0A0000000070B50246002400256F
:1037F00000230020958A138B1B0445EA030626F05C
:103800007F4404EA01068E4201D1012000E000203D
:1038100070BD21B1028842F00102028004E00288FA
:103820004FF6FE731A4002807047000010B5044640
:103830001348844209D10121480501F031F90021E2
:103840004FF4001001F02CF918E00E48844209D121
:103850000121880501F024F900214FF4800001F0D6
:103860001FF90BE00848844208D10121C80501F086
:1038700017F900214FF4000001F012F910BD00000B
:103880000054004000580040005C004021B1028814
:1038900042F48072028004E002884FF6FF631A400F
:1038A0000280704721B1028842F40072028004E075
:1038B00002884FF6FF531A40028070470CB502464B
:1038C000002000230193009300920B0F019321F03D
:1038D0007F41019B1BB1009B1433009303E0090C53
:1038E000009B18330093009B1B680B400BB1012019
:1038F00000E000200CBD00002DE9FF4704460D4606
:103900000026B1460427DFF8CC80A6884FF6C070A9
:103910000640684601F0F4F8DDF808802E48B8FB50
:10392000F0F01FFA80F946EA0906A68020884FF6D3
:10393000FE710840208000262849286888420CD85B
:1039400028684000B8FBF0F087B2042F00DA0427A3
:103950003E4309F10100208427E0E8884BF6FF711F
:10396000884206D1286800EB4000B8FBF0F087B22F
:1039700009E0286800EBC00101EB0010B8FBF0F093
:1039800087B247F48047C7F30B0008B947F0010737
:1039900047F4004006434FF4967009FB00F04FF4E3
:1039A0007A7190FBF1F0401C2084A683208840F0BF
:1039B0000100208026884FF6F5300640A8886989E6
:1039C000084306432680A889298908432081BDE849
:1039D000FF87000000127A0040420F00A08601001D
:1039E00012B141F0010101E001F0FE0101827047D6
:1039F000018270472DE9F04105460E46002400275C
:103A000007E0601C04B2B4F5487F01DD012707E040
:103A100000274FF400313248FFF750FF0028F0D163
:103A200000BF0024002F58D101212D48FFF72EFFA1
:103A300006E0601C04B240F2DC50844200DD05E088
:103A400028492748FFF7D0FE0028F2D000BF002405
:103A5000002278212248FFF7C3FF07E0601C04B270
:103A6000B4F5487F01DD012706E000271E491C4808
:103A7000FFF7BAFE0028F1D000BF002429461848FD
:103A8000FFF7B6FF07E0601C04B2B4F5487F01DD24
:103A9000012707E000271449891C1148FFF7A4FEFD
:103AA0000028F0D000BF002431460D48FFF7A0FFEA
:103AB00006E0601C04B240F2DC50844200DD06E007
:103AC0000949891C0648FFF78FFE0028F1D000BF86
:103AD000002401210248FFF7E5FEBDE8F081000067
:103AE00000540040010003008200070010B5DFED24
:103AF0002F1AB2EE041ADFED2E0AB3EE090A2D4892
:103B000000F094FCDFED2C1A9FED2C1AF1EE040A64
:103B10009FED2B0A2748203000F088FCDFED291AA2
:103B2000B1EE041ADFED280AB3EE040A2148803012
:103B300000F07CFCDFED251A9FED251AF1EE040A5A
:103B40009FED200A1B48A03000F070FCDFED171A33
:103B5000B2EE041ADFED160AB3EE090A1D4800F0B2
:103B600065FCDFED151A9FED151AF1EE040A9FEDC5
:103B7000140A1848203000F059FCDFED171A9FEDA9
:103B8000171ADFED170AB3EE0E0A1248803000F064
:103B90004DFCDFED141AB3EE0E1ADFED130A9FEDA4
:103BA000130A0C48A03000F041FC10BD00606A46CA
:103BB0008FC2F53CA010002000401C460000C84207
:103BC00000409C460050C3460AD7233C00709446F0
:103BD00000004843A011002000803B450000000089
:103BE000CDCCCC3D00009644CDCCCC3E0000614411
:103BF00010B53648FFF7A8FD002865D03348007897
:103C000030B101281DD0022834D003285AD149E010
:103C10002F48006840B92D48407888B92D48006881
:103C2000401E2C4908600BE02848407840B92A48DB
:103C300090ED000AF7EE000A30EE200A80ED000A4F
:103C400041E02348006840B92048407888B92148BD
:103C50000068401C1F4908600BE01C48407840B9D0
:103C60001D4890ED000AF7EE000A30EE600A80ED84
:103C7000000A28E01548407898B91548006828B926
:103C800016480068401C154908600AE0144800788E
:103C9000401C1349087008460078082801D100200C
:103CA000087010E00948407858B90C480068401E78
:103CB0000A49086006480068012802D1002004492A
:103CC000086000E000BF00BF10BD0000980D00209C
:103CD000A80D00209C0D0020B00D0020A40D002098
:103CE000AC0D0020F0EE401A21EEA02AF7EE002ADB
:103CF00072EEE12A02EE812AB0EE420A704700001D
:103D000002A0FCF761FB00BFFEE700004D656D4DB2
:103D1000616E6167655F48616E646C65720D0A0073
:103D200002A0FCF751FB00BFFEE700004E4D495FCB
:103D300048616E646C65720D0A00000070B5002168
:103D400000230F22C4781CB3174C246804F4E064E9
:103D5000C4F5E064C4F30721C1F10404E3B20A41ED
:103D600044789C40E1B28478144021430C07210E32
:103D70000E4C05786155047804F01F050124AC4011
:103D800005786D11AD0005F1E025C5F8004109E0A9
:103D9000047804F01F050124AC40054D0678761127
:103DA00045F8264070BD00000CED00E000E400E0A6
:103DB00080E100E002490143024A116070470000BF
:103DC0000000FA050CED00E070B500241DE004F1E0
:103DD000B001C8B20122002100F01EFA0122002128
:103DE000084600F019FA01220021102000F014FA10
:103DF000002506E001221146002000F00DFA681CA3
:103E0000C5B2802DF6DB601CC4B2082CDFDB70BDB0
:103E10002DE9F05F06460F4690461C46DDF828A0C7
:103E20004FF0000BE11704EB5171C910A4EBC10175
:103E300031B92046E11704EB5171C1F3C70506E023
:103E40002046E11704EB5171C910491CCDB23D4623
:103E500016E02946304600F073F9B1460CE05946A9
:103E60000BF1010B1AF8010001210B9A00F0D4F9B3
:103E700009F1010000F0FF09C145F0DB681CC5B283
:103E8000A542E6DBBDE8F09F00B587B001214805FB
:103E900000F0F6FD0121022000F0D2FDC0200190CB
:103EA00002208DF809008DF8080001208DF80A0025
:103EB0008DF80B0001A96148FFF75CFB0422062185
:103EC0005E48FFF79FFB042207215C48FFF79AFB3F
:103ED0005B48FFF7ABFC0020ADF810004BF6FF701D
:103EE000ADF812003020ADF814004FF48060ADF84A
:103EF00016000001ADF81800524803900121504807
:103F0000FFF787FC03A94E48FFF7F6FC642005F095
:103F1000EDFB01220021AE2000F07EF901220021FC
:103F2000202000F079F901220021102000F074F91E
:103F300001220021B02000F06FF901220021C820E9
:103F400000F06AF901220021084600F065F901221B
:103F50000021102000F060F901220021402000F033
:103F60005BF901220021812000F056F90122002195
:103F7000FF2000F051F901220021A12000F04CF9AE
:103F800001220021A62000F047F901220021A820EB
:103F900000F042F9012200213F2000F03DF901220A
:103FA0000021A42000F038F901220021D32000F0E4
:103FB00033F901220021084600F02EF901220021E8
:103FC000D52000F029F901220021F02000F024F989
:103FD00001220021D92000F01FF901220021222016
:103FE00000F01AF901220021DA2000F015F901226F
:103FF0000021122000F010F901220021DB2000F046
:104000000BF901220021202000F006F901220021F5
:104010008D2000F001F901220021142000F0FCF8AD
:1040200001220021AF2000F0F7F8FFF7CDFE0021BC
:10403000084600F085F807B000BD0000000402400B
:1040400000540040801A06002DE9F04F2DED028B40
:1040500085B082468B46B0EE408AF0EE608A1F46FD
:1040600014216846FCF7A7FB0024002500260BE07E
:104070009FED310B53EC102B51EC180B06F08EFA20
:1040800041EC180B601CC4B2BC42F1DB51EC180BC4
:1040900006F0C0F906460024002E06DA2D200DF8A1
:1040A00004007642601CC4B205E026B930200DF849
:1040B0000400601CC4B20025B04603E00A2098FB4F
:1040C000F0F86D1CB8F1000FF8DC4FF00009BD42AC
:1040D00007DC30200DF80400601CC4B200BF3D4670
:1040E00002E0E81B00F0FF0900216019401C0DF8F8
:1040F000001014E04D4504D12E2061190DF8010087
:104100000CE00A2096FBF0F100FB11603030C0B2E9
:1041100061190DF801000A2096FBF0F66D1E002DC6
:10412000E8DA01236A465946504600F04FF805B0D8
:10413000BDEC028BBDE8F08F0000000000002440C1
:1041400070B504460D4605F1B001C8B20122002148
:1041500000F062F8102141EA14100122002100F061
:104160005BF804F00F0141F001000122002100F092
:1041700053F870BD2DE9F04706460C4617469846A1
:104180004FF000090025A7F1200000F0FF097F2E65
:1041900002DD0026A01CC4B2601CC1B23046FFF78D
:1041A000CFFF00250BE009EB4901074A02EB410173
:1041B000485D4246012100F02FF8681CC5B2062D6B
:1041C000F1DBBDE8F0870000D2AA00082DE9F0413C
:1041D00006460F4614469846002518E0B8F1000F31
:1041E00006D1625D002339463046FFF7C3FF05E084
:1041F000625D012339463046FFF7BCFFB01DC6B2F1
:104200007A2E02DD0026B81CC7B2681CC5B2605DFC
:104210000028E3D1BDE8F08170B504460D4616468E
:104220000EB9E043C4B225B121464020FFF7E2FBBE
:1042300003E021460020FFF7DDFB70BD10B5012330
:1042400006A203212D20FFF7C1FF4FF4FA7005F0FD
:104250004DFA02F03FFCFFF7B7FD10BD73617665C4
:10426000206F6B000FB470B588B004460D461C215A
:1042700001A8FCF7A0FA0FA8009001A8009A0E99D7
:10428000FCF790F8064600200090012301AA294679
:104290002046FFF79BFF304608B070BC5DF814FB6A
:1042A00010B5024801F08CFA10BD0000A0170020E4
:1042B00070B506460024351DA3E0285DC02840D017
:1042C00012DCA52829D008DC90281ED0A02821D0F7
:1042D000A12820D0A22877D11EE0B02826D0B1286E
:1042E00025D0B228F7D123E0D1287BD006DCC12825
:1042F00028D0C22827D0D028EDD12DE0D92865D0EC
:10430000E02879D0F02879D174E0687840490870C5
:10431000A41C75E000BF00BF00BF29193D4851F83B
:10432000012F026089888180E41D69E000BF00BF21
:104330002919394851F8012F026089888180E41DCC
:104340005EE000BF00BF2919344851F8012F026018
:1043500089888180E41D53E0601C295CA01C285CD6
:1043600001EB002000B200EE100AB8EEC00ADFED4B
:104370002C0A80EE201A2B4880ED001AE01C295CE4
:10438000201D285C01EB002000B200EE100AB8EE00
:10439000C00ADFED230A80EE201A224880ED011AC0
:1043A000601D295CA01D285C01EB002000B200EE1E
:1043B000100AB8EEC00AF2EE040A80EE201A19487C
:1043C00080ED021AE41D1BE018E00BE029191548E6
:1043D00051F8012F02604A684260896881600D349B
:1043E0000EE009E02819411C10220F48FCF76CF977
:1043F000113405E0641D03E0641D01E0641C00BF8E
:1044000000BFB6F88400A0423FF757AF70BD000070
:104410005C0D00204A0D0020500D0020560D00209C
:104420000000C8424C2900205829002080ED010AD4
:10443000C0ED020A80ED031A9FED092A80ED042ADF
:104440009FED072A80ED052A9FED052A80ED062ABB
:10445000C0ED001A9FED022A80ED072A7047000088
:1044600000000000B0EE401A31EE600A80ED040A50
:1044700090ED040A90ED053A30EE430AF0EE401A52
:1044800090ED040AB0EE402A90ED040A90ED053A52
:10449000F0EE003A03EEC30A90ED063A30EE030A5E
:1044A000F0EE402A90ED010A20EE210A90ED023A4A
:1044B00003EE020A90ED033A03EE220A90ED073A6A
:1044C00030EE030A80ED070A90ED050A80ED060A3A
:1044D00090ED040A80ED050A90ED070A90ED003A90
:1044E000B1EE433AB4EEC30AF1EE10FA02DD90EDFC
:1044F000070A03E090ED000AB1EE400A90ED003AA1
:10450000B4EEC30AF1EE10FA12D290ED070A90ED64
:10451000003AB1EE433AB4EEC30AF1EE10FA02DD0E
:1045200090ED070A06E090ED000AB1EE400A01E0C6
:1045300090ED000A80ED070A90ED070A7047F0EE53
:10454000400AC0ED040A90ED040AD0ED052A30EED1
:10455000620AB0EE401A90ED040AF0EE401A90EDB7
:10456000040AD0ED052AB0EE003A03EE620AD0ED5F
:10457000062A30EE220AB0EE402A90ED010A20EE23
:10458000010AD0ED022A02EEA10AD0ED032A02EEC2
:10459000820AD0ED072A30EE220A80ED070A90ED5C
:1045A000050A80ED060A90ED040A80ED050A90EDFB
:1045B000070AD0ED002AF1EE622AB4EEE20AF1EE2B
:1045C00010FA02DD90ED070A03E090ED000AB1EE6B
:1045D000400AD0ED002AB4EEE20AF1EE10FA12D24F
:1045E00090ED070AD0ED002AF1EE622AB4EEE20A5D
:1045F000F1EE10FA02DD90ED070A06E090ED000AF8
:10460000B1EE400A01E090ED000A80ED070A90ED5E
:10461000070A704700B58BB00121022000F010FAA4
:104620000121042000F02CFA022206214548FEF761
:10463000E9FF022207214348FEF7E4FF0222082196
:104640004048FEF7DFFF022209213E48FEF7DAFF6D
:104650004FF47070069002208DF81C0000208DF839
:104660001E0003208DF81D0000208DF81F0006A9F4
:104670003448FEF77FFF344800F0BEFD5320ADF80C
:1046800020000020ADF822004FF48070ADF8280023
:1046900040F2CF70099008A92B4800F0F7FF702076
:1046A000ADF804000120ADF806000020ADF80800C8
:1046B00003900220ADF810000020ADF81200ADF814
:1046C00014004FF48070ADF8160001A91E4800F0E8
:1046D0007BFE01A91C4800F0C7FE01A91A4800F0A2
:1046E00023FF01A9184800F079FF0821164800F0BF
:1046F000B2FE0821144800F009FF0821124800F01A
:1047000063FF0821104800F0B2FF01210E4800F0BD
:1047100064FD01210C4800F045FD01210A4800F02C
:1047200050FD4FF47A70084934310860091D086063
:10473000091D0860091D0860400004F0D7FF0BB098
:1047400000BD0000000402400008004000B58BB02E
:104750000121102000F074F90121084600F0B0F9A1
:10476000012209214348FEF74DFF01220B21414858
:10477000FEF748FF01220D213E48FEF743FF0122CC
:104780000E213C48FEF73EFF4FF4D4400690022035
:104790008DF81C0000208DF81E0003208DF81D00F0
:1047A00000208DF81F0006A93248FEF7E3FE3248CC
:1047B00000F022FDA720ADF820000020ADF8220077
:1047C0004FF48070ADF8280040F2CF70099008A92E
:1047D000294800F05BFF7020ADF804000120ADF81F
:1047E00006000020ADF8080003900220ADF810008C
:1047F0000020ADF81200ADF814004FF48070ADF851
:10480000160001A91C4800F0DFFD01A91A4800F0BC
:104810002BFE01A9184800F087FE01A9164800F0F8
:10482000DDFE0821144800F016FE0821124800F0B1
:104830006DFE0821104800F0C7FE08210E4800F068
:1048400016FF01210C4800F0C8FC01210A4800F0C5
:10485000A9FC0121084800F0B4FC4FF47A70064925
:1048600048638863C8630864400004F03FFF0BB0EE
:1048700000BD0000001002400000014010B50446D9
:104880006148007807287DD2DFE800F0040A333D54
:104890004D5363005A2C02D101205B490870B0E0EF
:1048A0005A48006880F888405848006890F88800A6
:1048B000A52804D0A62806D0A72818D10FE00220EA
:1048C0005149087013E05248006820B14F48006811
:1048D0004F490968884700204B49087007E00020CD
:1048E0004A490968086006204749087000BF00BFB0
:1048F00087E046480068A0F884404648847003205A
:10490000414908707DE041480068B0F8840040EA01
:1049100004203E490968A1F884003E48C470042080
:10492000394908706DE03C4804800520364908701C
:1049300067E03948008840EA0420374908800020B1
:104940003249096808603549088006202E490870F8
:1049500057E02E48006801682C4800680068401C39
:104960002A4A1268106029480068001D44542748EC
:10497000006890F88800A72813D1244800680068D0
:10498000082800E039E00CD3082020490968A1F884
:1049900084001E4800681E490968884700201A499B
:1049A00008701A480068006818490968B1F884104E
:1049B000884221D31548006890F88800A5281BD1AB
:1049C00004221449154802F021F8104800680268D2
:1049D0000E480168091D114802F018F80F480088B8
:1049E0000D490988884204D10848006808490968C7
:1049F000884700200449087003E00020024908703D
:104A000000BF00BF002010BD6C0D0020640D002011
:104A1000600D00206D0D0020680D00206A0D002043
:104A200070B504460D46044805608C212046FBF70E
:104A3000C2FE0248046070BD600D0020640D0020BD
:104A400029B1064A12680243044B1A6004E0034A83
:104A500012688243014B1A607047000030380240F0
:104A600029B1064A12680243044B1A6004E0034A63
:104A700012688243014B1A607047000034380240CC
:104A800029B1064A12680243044B1A6004E0034A43
:104A900012688243014B1A607047000040380240A0
:104AA00029B1064A12680243044B1A6004E0034A23
:104AB00012688243014B1A607047000020380240A0
:104AC00029B1064A12680243044B1A6004E0034A03
:104AD00012688243014B1A6070470000443802405C
:104AE00029B1064A12680243044B1A6004E0034AE3
:104AF00012688243014B1A6070470000243802405C
:104B0000F0B5002100220024022500260223324FA6
:104B10003F6807F00C0121B1042905D0082937D1DD
:104B200005E02E4F076036E02D4F076033E02A4F37
:104B30003F1F3F68C7F38056274F3F1F3F6807F06E
:104B40003F036EB1264FB7FBF3F7DFF88CC0ACF133
:104B5000040CDCF800C0CCF3881C07FB0CF40CE060
:104B60001E4FB7FBF3F7DFF870C0ACF1040CDCF8B4
:104B700000C0CCF3881C07FB0CF4174F3F1F3F68A5
:104B8000C7F301477F1C7D00B4FBF5F7076002E027
:104B9000124F076000BF00BF0F4F3F6807F0F001E2
:104BA0000909104F7A5C0768D74047600A4F3F6891
:104BB00007F4E051890A0B4F7A5C4768D740876059
:104BC000054F3F6807F46041490B064F7A5C476820
:104BD000D740C760F0BD0000083802400024F40050
:104BE00040787D01740E002030B10749096841F01A
:104BF0000401054A116005E00349096821F0040138
:104C0000014A11607047000000080650014600206C
:104C1000034A12680A400AB1012000E000207047F0
:104C20000408065010B5002401214020FFF718FFAA
:104C30000120FFF7D9FF04E0601C84B2642002F079
:104C4000C1F90120FFF7E2FF18B942F21070844267
:104C5000F2DB42F21070844201DB012010BD002023
:104C6000FCE7000002A0FBF7AFFB00BFFEE700007F
:104C70005356435F48616E646C65720D0A00000014
:104C800001B5002016490978012900D108BD9DF819
:104C90000010144A144B1B7802F813109DF80110F1
:104CA000114B1B7802EB430251700F490978491CE4
:104CB0000D4A117011460978142901DB0021117089
:104CC0000949087809490978884203D10121044A31
:104CD000117002E00221024A117000BFD6E7000005
:104CE00033010020B81E00203201002031010020D5
:104CF00070B504460D4629462046FEF7B1FC142047
:104D000002F060F929462046FEF7A8FC70BD0000BD
:104D10000CB50020019000903448006840F48030C9
:104D20003249086000BF3148006800F4003000904C
:104D30000198401C0190009818B90198B0F5A04F57
:104D4000F1D12A48006800F4003010B10120009031
:104D500001E0002000900098012846D1234840300F
:104D6000006840F0805021494031086020480068C8
:104D700040F440401E4908601C48083000681B4948
:104D8000083108600846006840F4004008600846A2
:104D9000006840F4A05008601648091F0860081F0A
:104DA000006840F08070091F086000BF0F4800686D
:104DB00000F000700028F9D040F205700E4908603C
:104DC0000A480830006820F00300084908310860EC
:104DD0000846006840F00200086000BF0348083041
:104DE000006800F00C000828F8D10CBD0038024023
:104DF0000070004019544007003C024010B50248C2
:104E00000068804710BD00000C0E002010B515484A
:104E1000006840F47000134908601348006840F0CF
:104E200001001149086000200F49083108600E4850
:104E300000680E4908400C4908600D48091D0860CB
:104E4000081F006820F48020091F08600020064920
:104E50000C310860FFF75CFF4FF0006001498039BA
:104E6000086010BD88ED00E000380240FFFFF6FE4C
:104E7000103000247FB504460D4601214020FFF785
:104E8000FFFDADF804500020ADF806000294ADF827
:104E90000C0001A90B4800F0F9FB0122114609485A
:104EA00000F089FA0121074800F08BF92B208DF8DA
:104EB000000001208DF801008DF803006846FEF720
:104EC0003DFF7FBD0018004010B54248007800F05B
:104ED0008000002878D101213F4800F05BFAE8B15A
:104EE00040213E48FFF704FF3A48007800F04000B8
:104EF000A0B13848007800F03F003F2809D135487C
:104F0000007840F08000334908704FF6FF70C88089
:104F100004E030480078401C2E49087002212E48D9
:104F200000F038FA00284FD02A48007800F04000FE
:104F300080B32848007840F0800026490870264851
:104F400000F022FA2349C8800846007800F03F00AC
:104F5000488008464088C0EB0040488008464088AA
:104F6000C98808441B49488008464088AC2148430A
:104F700044F6206190FBF1F016498880002008700B
:104F80000846818816A0FBF71FFA0021124800F09E
:104F900059FA19E0FFE700200E490870C88008465A
:104FA000007840F04000087000210B4800F009F93B
:104FB0000021094800F068FB0221074800F042FA8E
:104FC0000121054800F0FDF80321034800F0F6F840
:104FD00010BD0000880D002000400140001002407C
:104FE0004843323A2025640A0000000010B54248C8
:104FF000007800F08000002878D101213F4800F0BF
:10500000C9F9E8B101213E48FFF772FE3A4800783D
:1050100000F04000A0B13848007800F03F003F2881
:1050200009D13548007840F08000334908704FF6C8
:10503000FF70C88004E030480078401C2E4908709A
:1050400010212E4800F0A6F900284FD02A480078F9
:1050500000F0400080B32848007840F080002649E6
:105060000870264800F093F92349C8800846007864
:1050700000F03F00488008464088C0EB0040488070
:1050800008464088C98808441B494880084640882B
:10509000AC21484342F2107190FBF1F01649888030
:1050A000002008700846818816A0FBF78DF90021C2
:1050B000124800F0CFFA19E0FFE700200E4908700F
:1050C000C8800846007840F04000087000210B4876
:1050D00000F077F80021094800F0D6FA02210748CD
:1050E00000F0B8FA0121054800F06BF811210348DF
:1050F00000F064F810BD0000800D002000040040A6
:10510000000402404843313A2025640A00000000B0
:1051100010B50121114800F03DF9E8B11048B0F98F
:10512000840210490968401A00EE100AB8EEC00A5D
:10513000DFED0D0A20EE200AF1EE000A80EE201AC3
:105140000A4880ED001A0648B0F984020549086053
:105150000121024800F032F810BD0000000C0040B0
:10516000840E00208C01002000606A41880100202C
:1051700010B50121094800F00DF9012809D12422B8
:10518000074901F12400FBF7E4FA24210448FBF766
:1051900012FB0121014800F011F810BD0018004079
:1051A0007827002021B1028842F08002028004E0CA
:1051B00002884FF67F731A4002807047CA4302820A
:1051C000704721B1028842F00102028004E00288A7
:1051D0004FF6FE731A400280704731B1B0F8442098
:1051E00042F40042A0F8442005E0B0F84420C2F3A5
:1051F0000E02A0F84420704710B50446554884427A
:1052000008D101210846FFF76BFC00210120FFF7C0
:1052100067FC9DE0B4F1804F08D101210846FFF7FB
:105220003FFC00210120FFF73BFC91E04A4884420B
:1052300008D101210220FFF733FC00210220FFF7F3
:105240002FFC85E04548844208D101210420FFF766
:1052500027FC00210420FFF723FC79E0404884422A
:1052600008D101210820FFF71BFC00210820FFF7CF
:1052700017FC6DE03B48844208D101211020FFF764
:105280000FFC00211020FFF70BFC61E03648844240
:1052900008D101212020FFF703FC00212020FFF787
:1052A000FFFB55E03148844208D101210220FFF77D
:1052B00017FC00210220FFF713FC49E02C48844230
:1052C00009D101210804FFF70BFC00214FF48030C5
:1052D000FFF706FC3CE02748844209D1012148043D
:1052E000FFF7FEFB00214FF40030FFF7F9FB2FE042
:1052F0002148844209D101218804FFF7F1FB0021F4
:105300004FF48020FFF7ECFB22E01C48844208D1D8
:1053100001214020FFF7C4FB00214020FFF7C0FB24
:1053200016E01748844208D101218020FFF7B8FB1E
:1053300000218020FFF7B4FB0AE01248844207D125
:1053400001218015FFF7ACFB0021A015FFF7A8FB9A
:1053500010BD0000000001400004004000080040B3
:10536000000C004000100040001400400004014008
:105370000040014000440140004801400018004046
:10538000001C0040002000400146486B7047014669
:10539000086C704730B50246002000230024158AAF
:1053A00005EA0103958905EA010413B10CB1012056
:1053B00000E0002030BD1AB183890B43838102E0F5
:1053C00083898B438381704770B5002400220023BA
:1053D000058C4FF6FE7635400584028C8388048B5D
:1053E0004FF68F752C40B51E2C400D882C43751E32
:1053F0002A408D892A434D882A43104DA84202D065
:105400000F4DA84213D14FF6F7752A40CD892A4394
:105410004FF6FB752A408D882A434FF6FF652B40D7
:105420004FF6FF552B400D8A2B434D8A2B4383802B
:1054300004838D684563028470BD00000000014054
:10544000000401400A460021018C4FF6FD7319400B
:105450001143018470470A460021018B4FF6F77310
:10546000194011430183704770B5002400220023C6
:10547000058C4FF6EF7635400584028C8388048BCB
:1054800048F6FF752C404FF6FF452C400D884FF62F
:10549000FF7606EA05252C434FF6DF752A408D89F5
:1054A00006EA05152A434D8806EA05152A43154DD7
:1054B000A84202D0144DA8421DD14FF67F752A4054
:1054C000CD894FF6FF7606EA05152A434FF6BF75DC
:1054D0002A408D8806EA05152A434FF6FF352B40F2
:1054E0004FF2FF752B400D8A06EA85052B434D8A46
:1054F00006EA85052B43838004838D6885630284D7
:1055000070BD000000000140000401400A46002177
:10551000018B4FF2FF7319404FF6FF7303EA02232A
:10552000194301837047000070B500240022002356
:10553000058C4FF6FF6635400584028C8388848B8A
:105540004FF68F752C404FF6FC752C400D882C4380
:105550004FF6FF552A408D894FF6FF7606EA05255E
:105560002A434D8806EA05252A43154DA84202D054
:10557000144DA8421DD14FF2FF752A40CD894FF638
:10558000FF7606EA05252A434FF6FF352A408D8827
:1055900006EA05252A434EF6FF752B404DF6FF75AA
:1055A0002B400D8A06EA05152B434D8A06EA0515A0
:1055B0002B43838084838D68C563028470BD0000A3
:1055C00000000140000401400A460021818B4FF693
:1055D000F7731940114381837047000070B50022B2
:1055E00000230024058C4EF6FF7635400584038C9D
:1055F0008488828B48F6FF752A404FF6FF452A4083
:105600000D884FF6FF7606EA05252A434DF6FF750D
:105610002B408D8906EA05352B434D8806EA053572
:105620002B430A4DA84202D0094DA84208D14BF69F
:10563000FF752C400D8A4FF6FF7606EA85152C4340
:10564000848082838D680564038470BD00000140FE
:10565000000401400A460021018C4DF6FF731940F9
:105660004FF6FF7303EA02331943018470470A4679
:105670000021818B4FF2FF7319404FF6FF7303EA4D
:1056800002231943818370474162704700220288D8
:10569000184B98420ED0184B98420BD0B0F1804F67
:1056A00008D0164B984205D0154B984202D0154BA6
:1056B000984204D14FF68F731A404B881A43124B0D
:1056C000984207D0114B984204D04FF6FF431A403E
:1056D0000B891A4302804B68C3620B880385054B14
:1056E000984202D0044B984201D18B7A0386012361
:1056F0008382704700000140000401400004004024
:1057000000080040000C0040001000400014004061
:105710004FF0FF31416000210180018141808172A1
:10572000704790ED000A704710B50E48008800F0F1
:10573000080018B10B48001D0088C4B240F2255182
:10574000084800F05FFB58B140F22551054800F0D1
:1057500015FA0448001D0088C4B22046FFF78EF8F1
:1057600010BD0000004C004010B500BF0A480168A1
:105770000A4801F04DFE00BF40F22551084800F0F4
:1057800041FB38B140F22551054800F0F7F90548D2
:105790000068804710BD00003C0E00205C00002027
:1057A00000500040340D002010B501F06FFDFEF7F1
:1057B0006BFB01F06BFF02F065FD01F063F910BDBA
:1057C00010B50446022036490860002035490860BB
:1057D00035490860FEF7F8FA5EE0FEF709FA20782E
:1057E00030490968884202D100202E4908602D48BE
:1057F0000068002803DA2078401E2A4908602848FB
:10580000006801280AD194F8A200012802D0FEF70E
:10581000DBFA42E00220224908602EE020480068BE
:1058200003282AD194F86C00012808D11D4801787A
:1058300004F1700302222046FCF7BEFF1DE094F83D
:105840006C00032805D1022015490860A06E80472E
:1058500013E00220124908601248006813490860EA
:10586000FEF7B2FA04F140010E4A126851F8220024
:1058700080470E4800680B49086094F86C000328C4
:1058800005D008490878214603F0DAF901E0A06E56
:105890008047142003F02AFF9FE700BF10BD0000DF
:1058A000A40D00209C0D0020A80D0020A00D0020BC
:1058B00010B500BF0A4801680A4801F0A9FD00BF01
:1058C00040F22551084800F09DFA38B140F22551C8
:1058D000054800F053F905480068804710BD0000F6
:1058E0003C0E00205000002000100140240D00203C
:1058F00010B51D48008800F0080018B11A48001DB6
:105900000088C4B240F22551174800F07BFA58B124
:1059100040F22551144800F031F91348001D008869
:10592000C4B22046FCF7BCF840F227710E4800F0E4
:1059300069FAC0B10D4801780078401C0B4A10701C
:105940000B48405C0849091D088010460078094949
:105950000978884207D104480C30008820F0800084
:1059600001490C31088010BD00440040480D002062
:10597000C0270020400D002010B540F22441094806
:1059800000F040FA01280CD10648001D00880649A5
:10599000087006480078401C04490870012004493A
:1059A000086010BD004800403C0100203B01002081
:1059B0004001002010B500BF62480168624801F054
:1059C00027FD00BF40F22551604800F01BFA002877
:1059D0007ED040F225515D4800F0D0F85B4800F0E1
:1059E000CBFA5B495B4A12788854084659490978D2
:1059F000405C03286DD157480078401E5449085C2C
:105A0000FC28F7D1534800780F38085C0328F1D1FF
:105A1000504800780E38085CFC28EBD14E480088CE
:105A2000401C00B24C4908804A4800780D3848496B
:105A3000085C4A490870474800780C384449085CBB
:105A400046494870434800780B384149085C43494F
:105A50008870404800780A383D49085C3F49C87062
:105A6000084690ED000A3E4880ED000A90ED000ADD
:105A7000DFED3C0A80EE201A3B4880ED001A3548E5
:105A8000007809383249085C344908713148007897
:105A900008382F49095C314841712E480078C01FF1
:105AA0002B49095C2D4881712A480078801F2849BC
:105AB000095C2A48C17190ED010A2C4880ED000A6A
:105AC00090ED000ADFED270A80EE201A284801E059
:105AD00037E02BE080ED001A1E480078401F1C497B
